02RETORNO01COBRANCA       00000000000004422756COLEGIO PALMARES              237BRADESCO       2909110160000000056                                                                                                                                                                                                                                                                          290911         000001
10205824890000170000000103391000167720000000000000000000002468000000000000000024680000000000000000000000000103290911000000000000000000000000002468290911000000000000100000000  000000000000000000000000000000000000000000000000000000000000000000000000000000000000000000000000000000000000000000000                          0800000000                                                                  000002
10205824890000170000000103391000167720000000000000000000002466000000000000000246630000000000000000000000000103290911000000000000000000000000024663290911000000000000123700000  000000000000000000000000000000000000000000000000000000000000000000000000000000000000000000000000000000000000000000000                          0700000000                                                                  000003
10205824890000170000000103391000167720000000000000000000002467000000000000000246710000000000000000000000000103290911000000000000000000000000024671290911000000000000123700000  000000000000000000000000000000000000000000000000000000000000000000000000000000000000000000000000000000000000000000000                          0700000000                                                                  000004
10205824890000170000000103391000167720000000000000000000002469000000000000000246980000000000000000000000000103290911000000000000000000000000024698290911000000000000123700000  000000000000000000000000000000000000000000000000000000000000000000000000000000000000000000000000000000000000000000000                          0700000000                                                                  000005
10205824890000170000000103391000167720000000000000000000002470000000000000000247010000000000000000000000000103290911000000000000000000000000024701290911000000000000123700000  000000000000000000000000000000000000000000000000000000000000000000000000000000000000000000000000000000000000000000000                          0700000000                                                                  000006
9201237          000000000000000000000000000056          00000000000000000000000000000000000000000000000000000000000000000000000000000000000000000000000000000000000000000000000000000000000                                                                                                                                                                              00000000000000000000000         000007
